:1000000000308A0029280000213084008313000872
:10001000031918280530F800F701F70B0D28F80B25
:100020000C282E30F700F70B13281628800B0A280F
:100030000034851D1928FF308600C830A100042037
:10004000851920288601C830A10004208A110A12CF
:100050005228840183131F308305831603178711E9
:100060000C3003139900E2309800D03083129800CE
:10007000831603170908C039890003131F129F1242
:100080000030031788008312870188018901FF303F
:1000900083160313850000308600831286018519BC
:0800A000522819284E286300C4
:04400E00F22FFF3F4F
:00000001FF
;PIC16F887
